{
  "_format": "hh-sol-artifact-1",
  "contractName": "Assessment",
  "sourceName": "contracts/Assessment.sol",
  "abi": [
    {
      "inputs": [
        {
          "internalType": "uint256",
          "name": "initBalance",
          "type": "uint256"
        }
      ],
      "stateMutability": "payable",
      "type": "constructor"
    },
    {
      "anonymous": false,
      "inputs": [
        {
          "indexed": false,
          "internalType": "uint256",
          "name": "oldBalance",
          "type": "uint256"
        },
        {
          "indexed": false,
          "internalType": "uint256",
          "name": "boostedBalance",
          "type": "uint256"
        }
      ],
      "name": "Boost",
      "type": "event"
    },
    {
      "anonymous": false,
      "inputs": [
        {
          "indexed": false,
          "internalType": "uint256",
          "name": "amount",
          "type": "uint256"
        }
      ],
      "name": "Deposit",
      "type": "event"
    },
    {
      "anonymous": false,
      "inputs": [
        {
          "indexed": false,
          "internalType": "uint256",
          "name": "penaltyAmount",
          "type": "uint256"
        },
        {
          "indexed": false,
          "internalType": "uint256",
          "name": "remainingBalance",
          "type": "uint256"
        }
      ],
      "name": "Penalty",
      "type": "event"
    },
    {
      "anonymous": false,
      "inputs": [
        {
          "indexed": false,
          "internalType": "uint256",
          "name": "amount",
          "type": "uint256"
        }
      ],
      "name": "Withdraw",
      "type": "event"
    },
    {
      "anonymous": false,
      "inputs": [
        {
          "indexed": false,
          "internalType": "uint256",
          "name": "amount",
          "type": "uint256"
        }
      ],
      "name": "WithdrawAll",
      "type": "event"
    },
    {
      "inputs": [],
      "name": "balance",
      "outputs": [
        {
          "internalType": "uint256",
          "name": "",
          "type": "uint256"
        }
      ],
      "stateMutability": "view",
      "type": "function"
    },
    {
      "inputs": [],
      "name": "boostBalance",
      "outputs": [],
      "stateMutability": "nonpayable",
      "type": "function"
    },
    {
      "inputs": [
        {
          "internalType": "uint256",
          "name": "_penalty",
          "type": "uint256"
        }
      ],
      "name": "deductPenalty",
      "outputs": [],
      "stateMutability": "nonpayable",
      "type": "function"
    },
    {
      "inputs": [
        {
          "internalType": "uint256",
          "name": "_amount",
          "type": "uint256"
        }
      ],
      "name": "deposit",
      "outputs": [],
      "stateMutability": "payable",
      "type": "function"
    },
    {
      "inputs": [],
      "name": "getBalance",
      "outputs": [
        {
          "internalType": "uint256",
          "name": "",
          "type": "uint256"
        }
      ],
      "stateMutability": "view",
      "type": "function"
    },
    {
      "inputs": [],
      "name": "owner",
      "outputs": [
        {
          "internalType": "address payable",
          "name": "",
          "type": "address"
        }
      ],
      "stateMutability": "view",
      "type": "function"
    },
    {
      "inputs": [
        {
          "internalType": "uint256",
          "name": "_withdrawAmount",
          "type": "uint256"
        }
      ],
      "name": "withdraw",
      "outputs": [],
      "stateMutability": "nonpayable",
      "type": "function"
    },
    {
      "inputs": [],
      "name": "withdrawAll",
      "outputs": [],
      "stateMutability": "nonpayable",
      "type": "function"
    }
  ],
  "bytecode": "0x6080604052604051610c1f380380610c1f833981810160405281019061002591906100ad565b336000806101000a81548173ffffffffffffffffffffffffffffffffffffffff021916908373ffffffffffffffffffffffffffffffffffffffff16021790555080600181905550506100da565b600080fd5b6000819050919050565b61008a81610077565b811461009557600080fd5b50565b6000815190506100a781610081565b92915050565b6000602082840312156100c3576100c2610072565b5b60006100d184828501610098565b91505092915050565b610b36806100e96000396000f3fe60806040526004361061007b5760003560e01c80638da5cb5b1161004e5780638da5cb5b146101145780639114512f1461013f578063b69ef8a814610156578063b6b55f25146101815761007b565b806312065fe014610080578063265e3f8a146100ab5780632e1a7d4d146100d4578063853828b6146100fd575b600080fd5b34801561008c57600080fd5b5061009561019d565b6040516100a2919061077f565b60405180910390f35b3480156100b757600080fd5b506100d260048036038101906100cd91906107cb565b6101a7565b005b3480156100e057600080fd5b506100fb60048036038101906100f691906107cb565b6102f6565b005b34801561010957600080fd5b50610112610441565b005b34801561012057600080fd5b5061012961052b565b6040516101369190610839565b60405180910390f35b34801561014b57600080fd5b5061015461054f565b005b34801561016257600080fd5b5061016b61065a565b604051610178919061077f565b60405180910390f35b61019b600480360381019061019691906107cb565b610660565b005b6000600154905090565b60008054906101000a900473ffffffffffffffffffffffffffffffffffffffff1673ffffffffffffffffffffffffffffffffffffffff163373ffffffffffffffffffffffffffffffffffffffff1614610235576040517f08c379a000000000000000000000000000000000000000000000000000000000815260040161022c906108d7565b60405180910390fd5b80600154101561027a576040517f08c379a000000000000000000000000000000000000000000000000000000000815260040161027190610943565b60405180910390fd5b6000600154905081600160008282546102939190610992565b9250508190555081816102a69190610992565b600154146102b7576102b66109c6565b5b7f28c619c49605c492d23419d5ffca91159426d25afdf8eec9d22f690c4350a3c5826001546040516102ea9291906109f5565b60405180910390a15050565b60008054906101000a900473ffffffffffffffffffffffffffffffffffffffff1673ffffffffffffffffffffffffffffffffffffffff163373ffffffffffffffffffffffffffffffffffffffff1614610384576040517f08c379a000000000000000000000000000000000000000000000000000000000815260040161037b906108d7565b60405180910390fd5b8060015410156103c9576040517f08c379a00000000000000000000000000000000000000000000000000000000081526004016103c090610a6a565b60405180910390fd5b6000600154905081600160008282546103e29190610992565b9250508190555081816103f59190610992565b60015414610406576104056109c6565b5b7f5b6b431d4476a211bb7d41c20d1aab9ae2321deee0d20be3d9fc9b1093fa6e3d82604051610435919061077f565b60405180910390a15050565b60008054906101000a900473ffffffffffffffffffffffffffffffffffffffff1673ffffffffffffffffffffffffffffffffffffffff163373ffffffffffffffffffffffffffffffffffffffff16146104cf576040517f08c379a00000000000000000000000000000000000000000000000000000000081526004016104c6906108d7565b60405180910390fd5b6000600154905060006001819055506000600154146104f1576104f06109c6565b5b7f3d5a341dc6a12221fcf31279cef3771f8fad757b2d9261f97605ccc17c25742481604051610520919061077f565b60405180910390a150565b60008054906101000a900473ffffffffffffffffffffffffffffffffffffffff1681565b60008054906101000a900473ffffffffffffffffffffffffffffffffffffffff1673ffffffffffffffffffffffffffffffffffffffff163373ffffffffffffffffffffffffffffffffffffffff16146105dd576040517f08c379a00000000000000000000000000000000000000000000000000000000081526004016105d4906108d7565b60405180910390fd5b600060015490506002600160008282546105f79190610a8a565b9250508190555060028161060b9190610a8a565b6001541461061c5761061b6109c6565b5b7faced9b6be1ca18e3c975fe30a60e87d62fba00c4ff45ceb476c81d7c27025f418160015460405161064f9291906109f5565b60405180910390a150565b60015481565b60008054906101000a900473ffffffffffffffffffffffffffffffffffffffff1673ffffffffffffffffffffffffffffffffffffffff163373ffffffffffffffffffffffffffffffffffffffff16146106ee576040517f08c379a00000000000000000000000000000000000000000000000000000000081526004016106e5906108d7565b60405180910390fd5b6000600154905081600160008282546107079190610acc565b92505081905550818161071a9190610acc565b6001541461072b5761072a6109c6565b5b7f4d6ce1e535dbade1c23defba91e23b8f791ce5edc0cc320257a2b364e4e384268260405161075a919061077f565b60405180910390a15050565b6000819050919050565b61077981610766565b82525050565b60006020820190506107946000830184610770565b92915050565b600080fd5b6107a881610766565b81146107b357600080fd5b50565b6000813590506107c58161079f565b92915050565b6000602082840312156107e1576107e061079a565b5b60006107ef848285016107b6565b91505092915050565b600073ffffffffffffffffffffffffffffffffffffffff82169050919050565b6000610823826107f8565b9050919050565b61083381610818565b82525050565b600060208201905061084e600083018461082a565b92915050565b600082825260208201905092915050565b7f596f7520617265206e6f7420746865206f776e6572206f66207468697320616360008201527f636f756e74000000000000000000000000000000000000000000000000000000602082015250565b60006108c1602583610854565b91506108cc82610865565b604082019050919050565b600060208201905081810360008301526108f0816108b4565b9050919050565b7f50656e616c747920657863656564732062616c616e6365000000000000000000600082015250565b600061092d601783610854565b9150610938826108f7565b602082019050919050565b6000602082019050818103600083015261095c81610920565b9050919050565b7f4e487b7100000000000000000000000000000000000000000000000000000000600052601160045260246000fd5b600061099d82610766565b91506109a883610766565b92508282039050818111156109c0576109bf610963565b5b92915050565b7f4e487b7100000000000000000000000000000000000000000000000000000000600052600160045260246000fd5b6000604082019050610a0a6000830185610770565b610a176020830184610770565b9392505050565b7f496e73756666696369656e742062616c616e6365000000000000000000000000600082015250565b6000610a54601483610854565b9150610a5f82610a1e565b602082019050919050565b60006020820190508181036000830152610a8381610a47565b9050919050565b6000610a9582610766565b9150610aa083610766565b9250828202610aae81610766565b91508282048414831517610ac557610ac4610963565b5b5092915050565b6000610ad782610766565b9150610ae283610766565b9250828201905080821115610afa57610af9610963565b5b9291505056fea264697066735822122040cbd46b5e9e6fe8c91425f916a483baa34a5af2a2a5062bb7bdcc0f2ed10a6964736f6c63430008110033",
  "linkReferences": {},
  "deployedLinkReferences": {}
}